:100000000C9450000C9460000C9460000C94600000
:100010000C9460000C9460000C9460000C946000E0
:100020000C9460000C9432030C9460000C946000FB
:100030000C9460000C9460000C9460000C946000C0
:100040000C944A030C9460000C9460000C946000C3
:100050000C9460000C9460000C9460000C946000A0
:100060000C9460000C9460000C9460000C94600090
:100070000C9460000C9460000C9460000C94600080
:100080000C9460000C9460000C9460000C94600070
:100090000C9460000C9460000C9460000C94600060
:1000A00011241FBECFEFCDBFDFE3DEBF2CE3A0E006
:1000B000BCE301C01D92AB34B207E1F75FD3FEC3CE
:1000C0009FCFFC0116860895FC0186850895FC01EA
:1000D0009685973038F4DF01A90FB11D1F966C93F8
:1000E0009F5F96870895FC0187E690E0868B978B4B
:1000F00081E690E0828F938F84E690E0808F918FED
:10010000CF010F968083918301968283938301961A
:100110008483958301968683978301968087918750
:10012000019682879387019684879587168608951E
:100130004F925F926F927F92AF92BF92CF92DF9277
:10014000EF92FF920F931F93CF93DF93EC01E88D13
:10015000F98DB0808FEE8B0D8E01085E1F4F8330BE
:1001600008F071C0EA8DFB8D8081EC8DFD8DC08023
:10017000D12CE12CF12CFE2CED2CDC2CCC24E82A0B
:10018000EE8DFF8D8081C82AE8A9F9A9C8010995DB
:10019000843081F483E1B81268C0FE01EE5BFF4F4A
:1001A0000190F081E02DB701A601CE010995809361
:1001B000C40849C0853089F4A2E1BA1256C0A8A18A
:1001C000B9A1FE01EC5BFF4F0190F081E02D2C9175
:1001D000B701A601CE01099536C0873009F045C0A8
:1001E000B1E1BB1242C0E8A1F9A18081EAA1FBA163
:1001F0004080512C612C712C762C652C542C44247D
:10020000682AECA1FDA18081482A8E010E5B1F4F58
:100210005E0184E3A80EB11C4C145D046E047F04DF
:1002200020F1D801ED91FC91B701A601CE0109950D
:10023000EAADFBAD682FC5010995BFEFCB1ADB0A0C
:10024000EB0AFB0AE9CFEAA9FBA9C801DF91CF912C
:100250001F910F91FF90EF90DF90CF90BF90AF90E4
:100260007F906F905F904F900994DF91CF911F9195
:100270000F91FF90EF90DF90CF90BF90AF907F9065
:100280006F905F904F900895DC011E96ED91FC9168
:100290001F97262F2295220F207E24835096ED91C2
:1002A000FC91519783E0769567958A95E1F7648391
:1002B00008950F931F93CF93DF93EC01EA81FB81A5
:1002C00094818C81892B8483ED81FE8194818F813F
:1002D00080958923848300E010E0ED81FE81948184
:1002E0008F81892B8483B801CE01CEDFEA81FB8127
:1002F00094818C818095892384838DE08A95F1F7A0
:100300000000EA81FB8194818C81892B848386E0C3
:100310008A95F1F700C0ED81FE8194818F818095EF
:1003200089238483ED81FE8194818F81892B84834D
:1003300086E08A95F1F700C0ED81FE8194818F817E
:100340008095892384830F5F1F4F011582E0180772
:1003500021F6DF91CF911F910F910895CF92DF92F7
:10036000EF92FF92CF93DF93EC016A017B01F89447
:10037000E881F9811082ED81FE8194818F81892B42
:100380008483DB01CA01A370BB27BC01CD0129E036
:1003900096958795779567952A95D1F7CE0174DF65
:1003A000EA81FB8194818C81809589238483EB850C
:1003B000FC8594818D85892B8483B6017170CE0173
:1003C00063DFED81FE8194818F8180958923848311
:1003D000E885F98594818A85809589238483E881DD
:1003E000F9818085ED81FE8124819F81922B948308
:1003F000EA81FB8124819C81922B9483E881F9819D
:100400009FEF90837894DF91CF91FF90EF90DF90F2
:10041000CF900895CF92DF92EF92FF921F93CF93E8
:10042000DF93EC016A017B01122FF894E881F981D6
:100430008FEF8083EA81FB8194818C81892B848377
:10044000ED81FE8194818F81892B8483DB01CA0138
:10045000A370BB27BC01CD0129E0969587957795C0
:1004600067952A95D1F7CE010FDFEA81FB81948150
:100470008C81809589238483E885F98594818A8598
:10048000892B8483B6017170CE01FEDEED81FE8181
:1004900094818F81809589238483E881F9811483F5
:1004A000EB85FC8594818D85809589238483E885FF
:1004B000F98594818A85809589238483ED81FE81E5
:1004C00094818F81892B8483EA81FB8194818C8143
:1004D000892B8483ED81FE8194818F81809589238E
:1004E0008483EB85FC8594818D85892B8483E881C9
:1004F000F9811482EE85FF851482E889F9891482D6
:100500007894DF91CF911F91FF90EF90DF90CF9083
:100510000895FC01A281B3819C918481892B8C93E5
:10052000A281B38114969C9114978481892B14968F
:100530008C93A581B6819C918781892B8C93A58111
:10054000B68114969C91149787818095892314967F
:100550008C93A085B1859C918285892B8C93A085F5
:10056000B18514969C911497828580958923149661
:100570008C93A385B4859C918585892B8C93A385C9
:10058000B48514969C9114978585892B14968C9329
:100590000895CF93DF93EC014896A5DDCE01C49674
:1005A00053D1FE01EE5BFF4F8EEA91E08083918391
:1005B00032968AE092E080839183329689E591E0D9
:1005C00080839183329688E990E080839183389785
:1005D00010823196108280E694E08883998380E8C7
:1005E00094E08A839B8341E04C838D839E8332E039
:1005F0003F838887998724E02A878B879C8788E0B8
:100600008D87E0E0F4E0EE87FF8760E274E0688BBE
:10061000798B9FEF9083E889F9899083E0E4F4E097
:10062000EA8BFB8B4D8B3E8B2F8B8C8B808182607A
:100630008083EA89FB8990818D89809589238083D5
:10064000EA89FB8990818C89809589238083EA8956
:10065000FB8990818F89809589238083CE01DF91EA
:10066000CF9157CF1F920F920FB60F9211248F93F5
:10067000EF93FF9381E08093413CE0E0FAE08385D3
:1006800080618387FF91EF918F910F900FBE0F9044
:100690001F9018951F920F920FB60F9211242F934F
:1006A0003F934F935F936F937F938F939F93AF93FA
:1006B000BF93CF93EF93FF938091C30887FF20C030
:1006C000C091C408E0913F3CF091403C85E39CE33D
:1006D000099581110AC0E0913D3CF0913E3C85E3D3
:1006E0009CE309958093C4080BC0E0912F3CF091E6
:1006F000303C6C2F89E19CE3099581E08093423C7A
:10070000FF91EF91CF91BF91AF919F918F917F9189
:100710006F915F914F913F912F910F900FBE0F906E
:100720001F901895E0E0FAE088E0808381E0818303
:100730008EE399E480AF91AF80E182878081816010
:1007400080830895E0EEF5E0838181608383E0ECAF
:10075000F8E090E891838181806481839283808135
:1007600081608083089588ED84BFE0E6F0E0108228
:1007700084BF81818E7F81837894089581E09CE39A
:1007800008DFF1DFDFDFCEDF8091413C882349F0D5
:10079000E091473CF091483C81E09CE30995109240
:1007A000413C8091423C882379F3E091493CF091AF
:1007B0004A3C81E09CE309951092423CE5CFCF93FF
:1007C000DF9300D01F92CDB7DEB7FC0185818F3F4C
:1007D000A9F08091003C90E0A381B4819E012F5F3D
:1007E0003F4F2D933C932383348301966FEF70E04A
:1007F0003ED08093003C85818F5F85832396CDBF5B
:10080000DEBFDF91CF910895FC0185818823A1F09F
:10081000A081B18112962C911297813029F04D91CF
:100820005C914083518304C010821182E383F4837E
:100830009FEF980F9583822F089521E0FC01858119
:10084000811120E0822F0895FC018DE194E08287E0
:1008500093878FED93E08683978384E094E080878D
:10086000918710821182E383F4831582089597FBA8
:10087000072E16F4009406D077FD08D00BD007FCA5
:1008800005D03EF4909581959F4F089570956195A0
:100890007F4F0895AA1BBB1B51E107C0AA1FBB1FB6
:1008A000A617B70710F0A61BB70B881F991F5A95FC
:1008B000A9F780959095BC01CD010895F894FFCFDC
:00000001FF
