:100000000C9450000C9460000C9460000C94600000
:100010000C9460000C9460000C9460000C946000E0
:100020000C9460000C94E7020C9460000C94600047
:100030000C9460000C9460000C9460000C946000C0
:100040000C94FF020C9460000C9460000C9460000F
:100050000C9460000C9460000C9460000C946000A0
:100060000C9460000C9460000C9460000C94600090
:100070000C9460000C9460000C9460000C94600080
:100080000C9460000C9460000C9460000C94600070
:100090000C9460000C9460000C9460000C94600060
:1000A00011241FBECFEFCDBFDFE3DEBF2CE3A0E006
:1000B000BCE301C01D92A833B207E1F7FED21EC314
:1000C0009FCFFC0112860895FC0182850895FC01F2
:1000D0009285953038F4DF01A90FB11D1B966C9302
:1000E0009F5F92870895FC0187E690E0808B918B5B
:1000F00081E690E0848B958B84E690E0828B938BF5
:10010000CF010B968083918301968283938301961E
:100110008483958301968683978301968087918750
:1001200012860895CF92DF92EF92FF920F931F9362
:10013000CF93DF9300D000D0CDB7DEB78C01DC01C8
:100140005896ED91FC915997D0808EEE8D0DF80167
:1001500078967F01823008F048C05A96ED91FC9164
:100160005B9720815C96ED91FC915D97808190E09A
:10017000A0E0B0E0BA2FA92F982F8827A22BF80172
:10018000268D378DF9012081822B89839A83AB8359
:10019000BC83D8019A96ED91FC919B97C701099574
:1001A000843089F4B3E1DB1227C049815A816B8125
:1001B0007C81D801D096ED91FC91D197C801099529
:1001C0008093C40812C08530B9F4B2E1DB1214C0C8
:1001D00049815A816B817C81F801A0A1B1A1C2A89B
:1001E000D3A82C91C801F6010995D8019C96ED91F0
:1001F000FC919D97C70109952496CDBFDEBFDF9185
:10020000CF911F910F91FF90EF90DF90CF900895C5
:10021000DC011E96ED91FC911F97262F2295220F4F
:10022000207E24835096ED91FC91519783E0769542
:1002300067958A95E1F7648308950F931F93CF9391
:10024000DF93EC01EA81FB8194818C81892B84838B
:10025000ED81FE8194818F8180958923848300E0E4
:1002600010E0ED81FE8194818F81892B8483B80118
:10027000CE01CEDFEA81FB8194818C818095892338
:1002800084838DE08A95F1F70000EA81FB819481F7
:100290008C81892B848386E08A95F1F700C0ED81FB
:1002A000FE8194818F81809589238483ED81FE81F5
:1002B00094818F81892B848386E08A95F1F700C031
:1002C000ED81FE8194818F818095892384830F5FE6
:1002D0001F4F011582E0180721F6DF91CF911F9182
:1002E0000F910895CF92DF92EF92FF92CF93DF9319
:1002F000EC016A017B01E881F9811082ED81FE81C8
:1003000094818F81892B8483DB01CA01A370BB2771
:10031000BC01CD0129E096958795779567952A953B
:10032000D1F7CE0175DFEA81FB8194818C818095C4
:1003300089238483EB85FC8594818D85892B848337
:10034000B6017170CE0164DFED81FE8194818F81F1
:10035000809589238483E885F98594818A858095B1
:1003600089238483E881F9818085ED81FE81248160
:100370009F81922B9483EA81FB8124819C81922B23
:100380009483E881F9819FEF9083DF91CF91FF9073
:10039000EF90DF90CF900895CF92DF92EF92FF928F
:1003A0001F93CF93DF93EC016A017B01122FE88149
:1003B000F9818FEF8083EA81FB8194818C81892B85
:1003C0008483ED81FE8194818F81892B8483DB017D
:1003D000CA01A370BB27BC01CD0129E09695879582
:1003E000779567952A95D1F7CE0112DFEA81FB81D7
:1003F00094818C81809589238483E885F985948113
:100400008A85892B8483B6017170CE0101DFED816D
:10041000FE8194818F81809589238483E881F9818D
:100420001483EB85FC8594818D8580958923848355
:10043000E885F98594818A85809589238483ED8177
:10044000FE8194818F81892B8483EA81FB81948151
:100450008C81892B8483ED81FE8194818F818095AD
:1004600089238483EB85FC8594818D85892B848306
:10047000E881F9811482EE85FF851482E889F98983
:100480001482DF91CF911F91FF90EF90DF90CF907A
:100490000895FC01A281B3819C918481892B8C9366
:1004A000A281B38114969C9114978481892B149610
:1004B0008C93A581B6819C918781892B8C93A58192
:1004C000B68114969C911497878180958923149600
:1004D0008C93A085B1859C918285892B8C93A08576
:1004E000B18514969C9114978285809589231496E2
:1004F0008C93A385B4859C918585892B8C93A3854A
:10050000B48514969C9114978585892B14968C93A9
:100510000895CF93DF93EC014896E5DD82E791E003
:1005200088AB99AB8CEC91E08AAB9BAB8DE191E011
:100530008CAB9DAB82E990E08EAB9FAB1EA61FA655
:1005400080E694E08883998380E894E08A839B83A3
:1005500041E04C838D839E8332E03F838887998777
:1005600024E02A878B879C8788E08D87E0E0F4E091
:10057000EE87FF8760E274E0688B798B9FEF908352
:10058000E889F9899083E0E4F4E0EA8BFB8B4D8BFA
:100590003E8B2F8B8C8B808182608083EA89FB89E4
:1005A00090818D89809589238083EA89FB89908158
:1005B0008C89809589238083EA89FB8990818F8942
:1005C000809589238083CE01DF91CF9162CF1F92E6
:1005D0000F920FB60F9211248F93EF93FF9381E048
:1005E00080932E3CE0E0FAE0838580618387FF9171
:1005F000EF918F910F900FBE0F901F9018951F9243
:100600000F920FB60F9211242F933F934F935F9346
:100610006F937F938F939F93AF93BF93EF93FF93CA
:100620008091C30887FF0CC06091C408E091283C0A
:10063000F091293C88E19CE3099581E080932F3C6F
:10064000FF91EF91BF91AF919F918F917F916F91AA
:100650005F914F913F912F910F900FBE0F901F9080
:100660001895E0E0FAE088E0808381E081838EE302
:1006700099E480AF91AF80E182878081816080833F
:100680000895E0EEF5E0838181608383E0ECF8E09B
:1006900090E89183818180648183928380818160ED
:1006A0008083089588ED84BFE0E6F0E0108284BF87
:1006B00081818E7F81837894089580E09CE329DF97
:1006C000F1DFDFDFCEDF80912E3C882349F0E0911F
:1006D000343CF091353C80E09CE3099510922E3C2F
:1006E00080912F3C882379F3E091363CF091373CA0
:1006F00080E09CE3099510922F3CE5CFF894FFCF62
:00000001FF
