S01300005465737450726F6A6563742E737265639A
S11300000C9450000C9460000C9460000C946000FC
S11300100C9460000C9460000C9460000C946000DC
S11300200C9460000C9465020C9460000C946000C5
S11300300C9460000C9460000C9460000C946000BC
S11300400C94E6020C9460000C9460000C94600024
S11300500C9460000C9460000C9460000C9460009C
S11300600C9460000C9460000C9460000C9460008C
S11300700C9460000C9460000C9460000C9460007C
S11300800C9460000C9460000C9460000C9460006C
S11300900C9460000C9460000C9460000C9460005C
S11300A011241FBECFEFCDBFDFE3DEBF2CE3A0E002
S11300B0BCE301C01D92A233B207E1F7D3D2F1C26F
S11300C09FCFCF92DF92EF92FF920F931F93CF9324
S11300D0DF93EC01EC89FD898081EE89FF89C08082
S11300E0D12CE12CF12CFE2CED2CDC2CCC24E82A98
S11300F0E88DF98D8081C82A8E010E5E1F4FECA118
S1130100FDA1C8010995EA89FB899081933159F4CD
S11301108430B1F4EAA5FBA5B701A601CE01099587
S11301208093C4080DC0923159F4853049F4AA8DE6
S1130130BB8DECA5FDA52C91B701A601CE010995B7
S1130140EEA1FFA1C801DF91CF911F910F91FF9004
S1130150EF90DF90CF900994DC011E96ED91FC9115
S11301601F97262F2295220F207E24835096ED91EF
S1130170FC91519783E0769567958A95E1F76483BE
S113018008950F931F93CF93DF93EC01EA81FB81D2
S113019094818C81892B8483ED81FE8194818F816C
S11301A080958923848300E010E0ED81FE819481B1
S11301B08F81892B8483B801CE01CEDFEA81FB8154
S11301C094818C818095892384838DE08A95F1F7CD
S11301D00000EA81FB8194818C81892B848386E0F1
S11301E08A95F1F700C0ED81FE8194818F8180951D
S11301F089238483ED81FE8194818F81892B84837B
S113020086E08A95F1F700C0ED81FE8194818F81AB
S11302108095892384830F5F1F4F011582E018079F
S113022021F6DF91CF911F910F910895CF92DF9224
S1130230EF92FF92CF93DF93EC016A017B01E88197
S1130240F9811082ED81FE8194818F81892B8483D1
S1130250DB01CA01A370BB27BC01CD0129E096953F
S11302608795779567952A95D1F7CE0175DFEA8151
S1130270FB8194818C81809589238483EB85FC8523
S113028094818D85892B8483B6017170CE0164DFDE
S1130290ED81FE8194818F81809589238483E88513
S11302A0F98594818A85809589238483E881F981FD
S11302B08085ED81FE8124819F81922B9483EA8144
S11302C0FB8124819C81922B9483E881F9819FEFA7
S11302D09083DF91CF91FF90EF90DF90CF900895BE
S11302E0CF92DF92EF92FF921F93CF93DF93EC01B3
S11302F06A017B01122FE881F9818FEF8083EA8103
S1130300FB8194818C81892B8483ED81FE8194818E
S11303108F81892B8483DB01CA01A370BB27BC01B5
S1130320CD0129E096958795779567952A95D1F71C
S1130330CE0112DFEA81FB8194818C81809589232F
S11303408483E885F98594818A85892B8483B60121
S11303507170CE0101DFED81FE8194818F818095E2
S113036089238483E881F9811483EB85FC85948156
S11303708D85809589238483E885F98594818A8590
S1130380809589238483ED81FE8194818F81892BDB
S11303908483EA81FB8194818C81892B8483ED8120
S11303A0FE8194818F81809589238483EB85FC85EC
S11303B094818D85892B8483E881F9811482EE856B
S11303C0FF851482E889F9891482DF91CF911F9106
S11303D0FF90EF90DF90CF900895FC01A281B3814C
S11303E09C918481892B8C93A281B38114969C91D6
S11303F014978481892B14968C93A581B6819C9142
S11304008781892B8C93A581B68114969C9114972E
S113041087818095892314968C93A085B1859C91BE
S11304208285892B8C93A085B18514969C91149711
S113043082858095892314968C93A385B4859C9199
S11304408585892B8C93A385B48514969C911497E8
S11304508585892B14968C930895FC0186E191E09F
S113046082A793A780E791E084A795A781EC90E009
S113047086A797A781E690E080AB91AB10A611A662
S113048080E694E08083918380E894E08283938380
S113049021E024838583968322E0278380879187C4
S11304A024E022878387948788E08587A0E0B4E0EE
S11304B0A687B78780E294E0808B918B8FEF8C9333
S11304C0A089B1898C93CF0188CF1F920F920FB668
S11304D00F921124CF92DF92EF92FF920F931F930A
S11304E02F933F934F935F936F937F938F939F9338
S11304F0AF93BF93EF93FF93CF93DF93CDB7DEB763
S1130500CF5FD109CDBFDEBFC12CD12C760115E060
S11305108C2D612FBAD0E0912C3CF0912D3C292FE9
S1130520B701A60180E09CE309958FEFC81AD80AA9
S1130530E80AF80AEFEFCE16D104E104F10441F71A
S1130540C12CD12C760101E010E00C0F1D1F0C0D05
S11305501D1DF8011082E0912A3CF0912B3CB7015B
S1130560A60180E09CE30995F8018083FFEFCF1A90
S1130570DF0AEF0AFF0A8FEFC816D104E104F10481
S113058011F781E08093283C80910B0A806180936D
S11305900B0AC150DF4FCDBFDEBFDF91CF91FF917A
S11305A0EF91BF91AF919F918F917F916F915F91E7
S11305B04F913F912F911F910F91FF90EF90DF90FA
S11305C0CF900F900FBE0F901F9018951F920F920F
S11305D00FB60F9211242F933F934F935F936F9312
S11305E07F938F939F93AF93BF93CF93DF93EF93B7
S11305F0FF936091C408C0E0DCE3EAA1FBA182E1BF
S11306009CE3099581E089A7FF91EF91DF91CF9158
S1130610BF91AF919F918F917F916F915F914F9116
S11306203F912F910F900FBE0F901F901895E0E00F
S1130630FAE088E0808381E081838EE399E480AFEF
S113064091AF80E18287808181608083089588ED05
S113065084BFE0E6F0E0108284BF81818E7F8183D5
S11306607894089580E09CE3F8DEF1DFE0DF809188
S1130670283C8823E1F3E0912E3CF0912F3C80E06C
S11306809CE309951092283CF2CF991B79E004C0B1
S1130690991F961708F0961B881F7A95C9F78095BD
S10906A00895F894FFCF59
S9030000FC
