:100000000C9450000C9460000C9460000C94600000
:100010000C9460000C9460000C9460000C946000E0
:100020000C9460000C948C010C9460000C946000A3
:100030000C9460000C9460000C9460000C946000C0
:100040000C9460000C9460000C9460000C946000B0
:100050000C9460000C9460000C9460000C946000A0
:100060000C9460000C9460000C9460000C94600090
:100070000C9460000C9460000C9460000C94600080
:100080000C9460000C9460000C9460000C94600070
:100090000C9460000C9460000C9460000C94600060
:1000A00011241FBECFEFCDBFDFE3DEBF2CE3A0E006
:1000B000BCE301C01D92A631B207E1F78ED193C116
:1000C0009FCFDC011E96ED91FC911F97262F229564
:1000D000220F207E24835096ED91FC91519783E06E
:1000E000769567958A95E1F764830895CF92DF92BC
:1000F000EF92FF92CF93DF93EC016A017B01E881DD
:10010000F9811082ED81FE8194818F81892B848316
:10011000DB01CA01A370BB27BC01CD0129E0969584
:100120008795779567952A95D1F7CE01CADFEA8141
:10013000FB8194818C81809589238483EB85FC8568
:1001400094818D85892B8483B6017170CE01B9DFCE
:10015000ED81FE8194818F81809589238483E88558
:10016000F98594818A85809589238483E881F98142
:100170008085ED81FE8124819F81922B9483EA8189
:10018000FB8124819C81922B9483DF91CF91FF90FE
:10019000EF90DF90CF900895CF92DF92EF92FF9291
:1001A0001F93CF93DF93EC016A017B01122FE8814B
:1001B000F9818FEF8083ED81FE8194818F81892B7E
:1001C0008483DB01CA01A370BB27BC01CD0129E0F8
:1001D00096958795779567952A95D1F7CE0171DF2A
:1001E000EA81FB8194818C81809589238483E885D1
:1001F000F98594818A85892B8483B6017170CE013B
:1002000060DFED81FE8194818F81809589238483D5
:10021000E881F9811483EB85FC8594818D85809537
:1002200089238483E885F98594818A85809589234B
:100230008483ED81FE8194818F81892B8483EA817F
:10024000FB8194818C81892B8483E881F9811482DC
:10025000DF91CF911F91FF90EF90DF90CF900895A5
:10026000CF93DF93FC0186E790E0828B938B8CEC3D
:1002700090E0848B958B80E694E080839183A0E866
:10028000B4E0A283B38381E084838C9181608C93FA
:10029000C281D3819C818481892B8C83A583B68381
:1002A00082E087838C9182608C93C581D6819C810A
:1002B0008781809589238C83A087B18784E082879A
:1002C0008C9184608C93C085D1859C81828580953A
:1002D00089238C83A387B48788E085878C91886085
:1002E0008C93A385B48514969C91149785858095ED
:1002F000892314968C93A0E0B4E0A687B78780E2A8
:1003000094E0808B918B8FEF8C930088F189E02DA6
:100310008083DF91CF9108951F920F920FB60F92B5
:1003200011242F933F934F935F936F937F938F93FA
:100330009F93AF93BF93CF93DF93EF93FF9381E0AE
:100340008093A704E0E0FAE0838580618387C0E0C2
:10035000DCE3EC89FD8925E649E355E060E070E0E7
:10036000CE010995EA89FB8949E355E060E070E038
:10037000CE010995FF91EF91DF91CF91BF91AF91A0
:100380009F918F917F916F915F914F913F912F91AD
:100390000F900FBE0F901F901895E0E0FAE088E0F4
:1003A000808381E081838EE399E480AF91AF80E127
:1003B0008287808181608083089588ED84BFE0E634
:1003C000F0E0108284BF81818E7F81837894E0EA9F
:1003D000F4E08081816080830895EFDFDEDF80E0DC
:0A03E0009CE33EDFFFCFF894FFCF4F
:00000001FF
