S01300005465737450726F6A6563742E737265639A
S11300000C9450000C9458000C9458000C94580014
S11300100C9458000C9458000C9458000C945800FC
S11300200C9458000C9459000C9458000C945800EB
S11300300C9458000C9458000C9458000C945800DC
S11300400C9458000C9458000C9458000C945800CC
S11300500C9458000C9458000C9458000C945800BC
S11300600C9458000C9458000C9458000C945800AC
S11300700C9458000C9458000C9458000C9458009C
S11300800C9458000C9458000C9458000C9458008C
S11300900C9458000C9458000C9458000C9458007C
S11300A011241FBECFEFCDBFDFE3DEBF3AD03CC08B
S11300B0A7CF1F920F920FB60F9211248F93EF9335
S11300C0FF9381E08093A704E0E0FAE083858061F8
S11300D08387FF91EF918F910F900FBE0F901F9028
S11300E01895E0E0FAE088E0808381E081838EE384
S11300F099E480AF91AF80E18287808181608083C1
S1130100089588ED84BFE0E6F0E0108284BF818129
S11301108E7F81837894E0EAF4E08081816080833B
S10F01200895EFDFDEDFFFCFF894FFCF7F
S9030000FC
