:100000000C9450000C9458000C9458000C94580018
:100010000C9458000C9458000C9458000C94580000
:100020000C9458000C9459000C9458000C945800EF
:100030000C9458000C9458000C9458000C945800E0
:100040000C9458000C9458000C9458000C945800D0
:100050000C9458000C9458000C9458000C945800C0
:100060000C9458000C9458000C9458000C945800B0
:100070000C9458000C9458000C9458000C945800A0
:100080000C9458000C9458000C9458000C94580090
:100090000C9458000C9458000C9458000C94580080
:1000A00011241FBECFEFCDBFDFE3DEBF43D045C07D
:1000B000A7CF1F920F920FB60F9211248F939F9389
:1000C000EF93FF93E0EAF4E0948181E08927848351
:1000D000E0E0FAE010A211A2838580618387FF919E
:1000E000EF919F918F910F900FBE0F901F901895D9
:1000F000E0E0FAE08FEF9FEF86A397A388E080838C
:100100008EE399E480A791A780E182878081816056
:100110008083089588ED84BFE0E6F0E0108284BF1C
:1001200081818E7F81837894E0EAF4E08081816030
:0E01300080830895EFDFDCDFFFCFF894FFCF70
:00000001FF
